S01500006C61626F7261746F72696F20362E737265631B
S11300000C9434000C9451000C9451000C94510045
S11300100C9451000C9451000C9451000C94510018
S11300200C9451000C9451000C9451000C94510008
S11300300C9451000C9451000C9451000C945100F8
S11300400C9451000C9451000C944F010C945100E9
S11300500C9451000C9488000C9451000C945100A1
S11300600C9451000C94510011241FBECFEFD8E022
S1130070DEBFCDBF11E0A0E0B1E0E4ECF6E002C0E9
S113008005900D92AE3DB107D9F721E0AEEDB1E098
S113009001C01D92A53EB207E1F70E94B9000C947D
S11300A060030C9400008AB18E7F8AB98AB18260A1
S11300B08AB91092C000E1ECF0E010828081886976
S11300C08083E2ECF0E0108280818660808387E6A2
S11300D090E09093C5008093C4000895ECE7F0E0AD
S11300E086E0808380818064808380818F778083B1
S11300F0808180628083EAE7F0E0108280818860FA
S11301008083808187608083808180688083089574
S11301101F920F920FB60F9211248F93EF93FF93B8
S1130120809179008093E401EAE7F0E080818061C6
S11301308083FF91EF918F910F900FBE0F901F90CE
S113014018959091C00095FFFCCF8093C600089548
S1130150AC0120E007C09091C00095FFFCCF309324
S1130160C6002F5FFA01E20FF11D30813111F3CF88
S11301700895CF93DF93CDB7DEB72A970FB6F894DF
S1130180DEBF0FBECDBF8FE384B90E946E000E9414
S1130190530078948091E1019091E201892B59F503
S11301A080E091E00E94A80085E291E00E94A8000E
S11301B08AE00E94A1008DE00E94A1008AE00E94D2
S11301C0A1008FE491E00E94A8008AE00E94A100AF
S11301D08DE00E94A1008BE791E00E94A8008AE0D4
S11301E00E94A1008DE00E94A10081E090E0909324
S11301F0E2018093E1018091DE01882359F280912C
S1130200DE01813319F08233E9F1C4CF83EA91E04E
S11302100E94A800EAE7F0E0808180648083609116
S113022078007091790080E090E00E94300220E034
S113023030E040EA50E40E94BE0220E030EC4FE798
S113024054E40E948F0120E030E048EC52E40E9424
S1130250BE020E940102DC01CB014AE0BE016F5FD5
S11302607F4F0E942B03CE0101960E94A80080EAD2
S113027091E00E94A8001092E2011092E101109214
S1130280DE0188CF1092DE0188EC91E00E94A80084
S113029081E090E09093E0018093DF017BCF1F9297
S11302A00F920FB60F9211242F933F938F939F9326
S11302B08091C6008093DE018091DF019091E0017E
S11302C00197E1F42091DE012F738091DE01982FD4
S11302D0929596959695937025B92BB130E4939F9A
S11302E0C0011124922F9F73892B8BB91092E001C6
S11302F01092DF011092E2011092E1018091C0009E
S113030085FFFCCF8091DE018093C6009F918F9181
S11303103F912F910F900FBE0F901F9018950E9440
S1130320A3010C9484020E947D0258F00E9476027C
S113033040F029F45F3F29F00C946D0251110C94A4
S1130340B8020C9473020E94950268F39923B1F3E6
S1130350552391F3951B550BBB27AA2762177307E7
S1130360840738F09F5F5F4F220F331F441FAA1F7B
S1130370A9F335D00E2E3AF0E0E832D09150504037
S1130380E695001CCAF72BD0FE2F29D0660F771FE5
S1130390881FBB1F261737074807AB07B0E809F0CB
S11303A0BB0B802DBF01FF2793585F4F3AF09E3F50
S11303B0510578F00C946D020C94B8025F3FE4F39D
S11303C0983ED4F3869577956795B795F7959F5F93
S11303D0C9F7880F911D9695879597F90895E1E0DF
S11303E0660F771F881FBB1F621773078407BA073E
S11303F020F0621B730B840BBA0BEE1F88F7E09599
S113040008950E949D0288F09F5798F0B92F99276C
S1130410B751B0F0E1F0660F771F881F991F1AF0EB
S1130420BA95C9F714C0B13091F00E94B702B1E097
S113043008950C94B702672F782F8827B85F39F096
S1130440B93FCCF3869577956795B395D9F73EF484
S113045090958095709561957F4F8F4F9F4F08952C
S1130460E89409C097FB3EF490958095709561954A
S11304707F4F8F4F9F4F9923A9F0F92F96E9BB2700
S11304809395F695879577956795B795F111F8CF7C
S1130490FAF4BB0F11F460FF1BC06F5F7F4F8F4FE7
S11304A09F4F16C0882311F096E911C0772321F0DD
S11304B09EE8872F762F05C0662371F096E8862F75
S11304C070E060E02AF09A95660F771F881FDAF7CC
S11304D0880F9695879597F9089597F99F6780E80F
S11304E070E060E008959FEF80EC089500240A9482
S11304F01616170618060906089500240A941216FB
S11305001306140605060895092E0394000C11F42D
S1130510882352F0BB0F40F4BF2B11F460FF04C0DA
S11305206F5F7F4F8F4F9F4F089557FD9058440F33
S1130530551F59F05F3F71F04795880F97FB991F3E
S113054061F09F3F79F087950895121613061406FB
S1130550551FF2CF4695F1DF08C016161706180688
S1130560991FF1CF86957105610508940895E89463
S1130570BB2766277727CB0197F908950E94D102FC
S11305800C9484020E94760238F00E947D0220F0CE
S1130590952311F00C946D020C94730211240C94A5
S11305A0B8020E94950270F3959FC1F3950F50E035
S11305B0551F629FF001729FBB27F00DB11D639F11
S11305C0AA27F00DB11DAA1F649F6627B00DA11DB7
S11305D0661F829F2227B00DA11D621F739FB00D5D
S11305E0A11D621F839FA00D611D221F749F3327CD
S11305F0A00D611D231F849F600D211D822F762F66
S11306006A2F11249F5750409AF0F1F088234AF042
S1130610EE0FFF1FBB1F661F771F881F91505040AE
S1130620A9F79E3F510580F00C946D020C94B8021A
S11306305F3FE4F3983ED4F3869577956795B79535
S1130640F795E7959F5FC1F7FE2B880F911D96954F
S1130650879597F90895BB274A3031F4992322F4FA
S1130660BDE2909581959F4F0C943703BB27FB0106
S11306705527AA27880F991FAA1FA41710F0A41B97
S113068083955051B9F7A05DAA3308F0A95DA193F1
S1130690009779F7B111B1931192CB010C945003E7
S11306A0DC01FC01672F71917723E1F7329704C0D5
S11306B07C916D9370836291AE17BF07C8F3089560
S10706C0F894FFCFD8
S11306C40A0D2A2A2A2A2A2A2A2A2A2A2A2A2A2ABF
S11306D44D656E752A2A2A2A2A2A2A2A2A2A2A2A85
S11306E42A2A2A2A000A0D2A2A2A2A2A2A2A496E66
S11306F4677265736520756E2076616C6F722A2A41
S11307042A2A2A2A2A2A2A2A2A2A2A2A2A2A002075
S1130714202020202020202020436F6C6F717565D9
S113072420312070617261206C65657220706F7471
S1130734656E63696F6D6574726F002020202020DC
S11307442020202020436F6C6F7175652032207047
S113075461726120656E766961722041534349492F
S11307640A0D004C6563747572612061637475616C
S11307746C20646520706F74656E63696F6D657455
S1130784726F2065733A20000A0D496E67726573AF
S11107946520756E2076616C6F720A0D000090
S9030000FC
